:020000040000FA
:02000000FC28DA
:08000800BE00030E8301BF00DE
:0E0010000A08C0008A018408C2008C10422831
:0C008400200803195128A10B5128200866
:10009000A100221B4F282030A200B80751280030B1
:1000A000A200230803196028A40B60282308A400D9
:1000B000251B5E282030A500B80760280030A50069
:1000C000260803196F28A70B6F282608A700281BEE
:1000D0006D282030A800B8076F280030A800290834
:1000E00003197E28AA0B7E282908AA002B1B7C282E
:1000F0002030AB00B8077E280030AB002C08031975
:100100008D28AD0B8D282C08AD002E1B8B282030A0
:10011000AE00B8078D280030AE002F0803199C28C8
:10012000B00B9C282F08B000311B9A282030B1005A
:10013000B8079C280030B10032080319AB28B30B74
:10014000AB283208B300341BA9282030B400B8070C
:10015000AB280030B40035080319BA28B60BBA280A
:100160003508B600371BB8282030B700B807BA28C2
:100170000030B70038089500B80140088A003F0EEB
:0C0180008300420E8400BE0E3E0E0900FB
:0801F80085018601B801BD017B
:1002000007309F0003138316FF30850000308600FF
:100210008C14C8309200831212158B170B170C30F8
:10022000970000309500BB01BA01BD010130860086
:100230000508031D5B21BD1B13290830BA000230DD
:1002400086000508031D5B21BD1B13291030BA0071
:10025000043086000508031D5B21BD1B13291830DF
:10026000BA00103086000508031D5B21BD1B132951
:100270002030BA00203086000508031D5B21BD1B1D
:1002800013292830BA00403086000508031D5B2181
:10029000BD1B13293B1CA001BB1CA3013B1DA601D8
:1002A000BB1DA9013B1EAC01BB1EAF013B1FB20130
:1002B000BB1FB5011329051C61299121BD00BD1B80
:1002C0000800BA0A851C68299121BD00BD1B0800E1
:1002D000BA0A051D6F299121BD00BD1B0800BA0A8D
:1002E000851D76299121BD00BD1B0800BA0A051E97
:1002F0007D299121BD00BD1B0800BA0A851E8429F5
:100300009121BD00BD1B0800BA0A051F8B29912150
:10031000BD00BD1B0800BA0A851F90299121BD00B0
:1003200008003B08FF3C031980343A080022C30050
:10033000C421BD003D1B0800A621840043088000A5
:10034000840A8001800A840A800100343B18AA29AB
:100350003B142034BB18AE29BB1423343B19B229FB
:100360003B152634BB19B629BB1529343B1ABA29CB
:100370003B162C34BB1ABE29BB162F343B1BC2299B
:100380003B173234BB173534430820020319C929FF
:10039000CB293B144034430823020319D029D22926
:1003A000BB144034430826020319D729D9293B1529
:1003B0004034430829020319DE29E029BB154034E3
:1003C00043082C020319E529E7293B16403443086A
:1003D0002F020319EC29EE29BB16403443083202E0
:1003E0000319F329F5293B17403443083502031953
:0A03F000FA29FC29BB174034003441
:10040000BD0002308A003A088207FF34B6348134D6
:100410005B3440342D3420341734F334AC34793425
:1004200056343D342B341E341634E534A234733440
:100430005134393428341D341534D83499346C345B
:100440004C34363426341B341434CC349034663473
:100450004834333424341A341334C1348834603487
:0C04600044343034223418341234123486
:02400E00183D5B
:00000001FF
